:020000040800F2
:10000000A8090020ED010008CD2E0008E52B00080E
:10001000592E000883140008C535000800000000B0
:100020000000000000000000000000001B2F00087E
:10003000BD14000800000000192F00081D2F000843
:10004000070200080702000807020008070200086C
:10005000070200080702000807020008070200085C
:10006000070200080702000807020008070200084C
:10007000070200080702000807020008070200083C
:10008000070200080702000807020008070200082C
:10009000070200080702000807020008070200081C
:1000A000070200080702000807020008070200080C
:1000B0000702000807020008A92F0008070200082D
:1000C00007020008070200080702000807020008EC
:1000D0000702000899350008070200080702000817
:1000E00007020008070200080702000807020008CC
:1000F00007020008070200080702000807020008BC
:1001000007020008070200080702000807020008AB
:100110000702000807020008B52F000807020008C0
:10012000070200080702000807020008070200088B
:1001300000F002F800F04AF80AA090E8000C8244AF
:100140008344AAF10107DA4501D100F03FF8AFF28C
:10015000090EBAE80F0013F0010F18BFFB1A43F0A5
:10016000010318472046000040460000103A24BF13
:1001700078C878C1FAD8520724BF30C830C144BF0C
:1001800004680C607047000000230024002500264E
:10019000103A28BF78C1FBD8520728BF30C148BFEA
:1001A0000B607047662904F08C82642900F04C8053
:1001B000002070471FB500F025FC0400002000213E
:1001C00003F0B0FDE0601FBD10B510BD00F032FDC2
:1001D0001146FFF7EFFF03F071FA00F050FD03B492
:1001E000FFF7F2FF03BC03F019FA0000094880474B
:1001F00009480047FEE7FEE7FEE7FEE7FEE7FEE709
:10020000FEE7FEE7FEE7FEE704480549054A064B20
:10021000704700007F2F000831010008A80300206C
:10022000A8090020A8050020A805002070470000AC
:100230000FB4044910B503AA029800F09FFB10BC4C
:100240005DF814FB140000202DE9F041064600245F
:1002500010687529314616A510D0AFF3008000282C
:1002600002DA404213A507E031688A0701D512A5DA
:1002700002E0490704D511A5012401E0AFF3008095
:1002800000210A2206F1240709E0B0FBF2FCB0FBD2
:10029000F2F302FB1C00303078541846491C002849
:1002A000F3D123462A463046BDE8F04100F0FFB8BE
:1002B000000000002D0000002B00000020000000C6
:1002C0002DE9F0474FF0000A89460446C0F820A007
:1002D0002046E1688847002876D0252806D0D4E952
:1002E00001219047206A401C2062F1E7E168204626
:1002F00000258847C4F81CA006460027C4F818A0AB
:100300002A2E09D0304603F082F938B304EB87086F
:10031000303EC8F8186019E059F8041B204604EB79
:1003200087029161E1688847012F064618D1E0698C
:10033000002820DA25F020051DE0D8F8180000EB91
:10034000800006EB40003038C8F818002046E1680D
:100350008847064603F05BF90028EED1012F0AD04A
:100360002E2E08D12046E16888477F1C0646022FC2
:1003700045F02005C4DBA069002803DA404245F0BF
:100380000105A061E80701D025F01005B6B1A6F17E
:100390004100192802D8203645F400654A46314606
:1003A000204625604D46FFF7FDFE58B1012806D0D6
:1003B000ED1D25F0070000F1080989E704E005F1CB
:1003C000040985E730468AE7206ABDE8F087032AFA
:1003D00040F2308010F0030C00F0158011F8013B62
:1003E000BCF1020F624498BF11F801CB00F8013B49
:1003F00038BF11F8013BA2F1040298BF00F801CB0D
:1004000038BF00F8013B11F0030300F0C982083A3D
:10041000C0F0088051F8043B083A51F804CBA0E83A
:100420000810F5E7121D5CBF51F8043B40F8043B8F
:10043000AFF30080D20724BF11F8013B11F801CBC4
:1004400048BF11F8012B24BF00F8013B00F801CB95
:1004500048BF00F8012B70474FF0000200B513466B
:1004600094469646203922BFA0E80C50A0E80C50D4
:10047000B1F12001BFF4F7AF090728BFA0E80C5085
:1004800048BF0CC05DF804EB890028BF40F8042B7E
:1004900008BF704748BF20F8022B11F0804F18BFEB
:1004A00000F8012B704770477047704770472DE97F
:1004B000F0470D4699469246044600F1240801682B
:1004C000880604D5E06921F01001216000E00120D8
:1004D000A84201DD471B00E00027A1697A1902EB61
:1004E0000900081AA0612078C00602D42046AFF3A4
:1004F0000080002608E0D4E901211AF806009047A0
:10050000206A401C761C20624E45F4DB2078C00631
:100510000AD52046AFF3008006E0D4E9012130205F
:100520009047206A401C2062381EA7F10107F4DCC6
:1005300007E0D4E9012118F805009047206A401C23
:100540002062281EA5F10105F3DC2046AFF30080F0
:100550002078000602D50220BDE8F0870120FBE7E5
:1005600070472DE9FF4F0C461E464FF0FF378BB00A
:10057000D2E90001DDF860800A908A46C1F30A558D
:1005800005B93D46002108464FF00000BAF1000FC2
:1005900000F4400005DA00EB80004FF4400101EA6E
:1005A00050004FEA9059B9F1010F00DDB9460A98A1
:1005B00050EA4A000ED044F61050A5F2FF354543EC
:1005C0002F14B8F1000F1ED07542291E1EDDC9F18F
:1005D00000021CE0B8F1010F4FF0000001D0302103
:1005E00003E0F24305E02154401CB042FBDB3046FF
:1005F0000022002121540B99C1F80880C1E9002094
:100600000FB0BDE8F08FBD1B6D1CDEE74A4600DA77
:10061000694206A800F098FA06AB93E8070003AB1E
:1006200083E8070050460A9900F070FB8DE8070048
:10063000A0F500501F3800900398002D09DD42F20C
:100640001F014A46084403A90390684600F0CFFD05
:1006500008E0A0F500504A461F3803A903906846F9
:1006600000F0D9FD8DE807000004000C03D04FF026
:10067000FF30410800E01046B8F1000F03D000221F
:10068000009215461EE0751E05D400F0BFF9303209
:1006900062556D1EF9D5B3460122084302D00022EF
:1006A0007F1C04E02078302801D100227F1E002A20
:1006B000099786D01DE0112D07DA00F0A7F9303236
:1006C00062556D1C50EA0102F5D1084302D0009832
:1006D000C8B10EE00021681E05E0235C625C635433
:1006E0002254401E491C8142F7DBAB46A81B401E2A
:1006F0000990002004F80B000B98099AC0F80880B4
:10070000C0E9002B7CE711264FF0000859E72DE9DE
:10071000F04F88460446D21D22F0070191B0D1E97E
:100720000001CDE90A0102F04EFF02460B98C00F0E
:1007300001D02D2007E02068810701D52B2002E0A1
:10074000202101EAC000032A099001D0072A05DB15
:1007500003464146204600F0B7F90BE120788006B9
:1007600001D5E06900E00620B8F1650F814606D0AA
:10077000B8F1660F18D0B8F1670F70D131E00020E2
:10078000B9F1110F009001DB112301E009F1010320
:100790000AAA01A90CA8FFF7E4FEDDE90C70002607
:1007A00009F10105834647E001204B4600904FF0D8
:1007B00000470AAA01A90CA8FFF7D3FEDDE90DB096
:1007C0000C995D46002610B909F101000D18B9EB2E
:1007D000050003D4C0F1FF3609F10105A5EB0900BE
:1007E0002BE0B9F1010F01DA4FF001090020B9F156
:1007F000110F0090484601DD112300E003460AAACC
:1008000001A90CA8FFF7ADFEDDE90C704D460026EE
:100810008346207800070AD4AB4500DA5D4601A87C
:10082000012D04DD411911F8011C302907D04F4575
:1008300002DA17F1040F04DA012082460FE06D1E80
:10084000EEE7002F02DCED1B3E4403E0781CA842DB
:1008500000DD7D1CB81B00F1010A4FF00047207835
:10086000000703D4AA4501DB4FF0FF3A0021B7F19E
:10087000004F0DF143088DF8431024D002202B23A4
:10088000002F01DA7F422D230A21021EA0F1010070
:1008900000DC5FB197FBF1FC97FBF1F201FB1C7CE4
:1008A00017460CF1300C08F801CDEEE7A8F1010075
:1008B00003702188090501D5452100E06521A0F1DB
:1008C000010800F8011C09980FA9A1EB0807FF1DFA
:1008D00000B10120411901EBEA70A1693844081AFE
:1008E000401EA0612078C00602D42046AFF30080ED
:1008F000099828B1D4E901219047206A401C206260
:100900002078C00622D52046AFF300801EE0002EDE
:1009100004DBB34502DD01A8805D00E03020D4E9AE
:1009200001219047206A401C2062761CAAF1010038
:100930005FEA000A0AD100F065F8C0680168405C0F
:10094000D4E901219047206A401C2062281EA5F1AD
:100950000105DCDC07E0D4E9012118F8010B904720
:10096000206A401C2062381EA7F10107F3DC2046F4
:10097000AFF30080032011B043E60000074B70B5D1
:100980000D467B4400F08DF80446284600F04AF9F5
:1009900010B14FF0FF3070BD204670BDAF2C00008D
:1009A00010B5203AC0F00B80B1E81850203AA0E80A
:1009B0001850B1E81850A0E81850BFF4F5AF5FEA3E
:1009C000027C24BFB1E81850A0E8185044BF18C9F1
:1009D00018C0BDE810405FEA827C24BF51F8043B98
:1009E00040F8043B08BF7047D20728BF31F8023BEC
:1009F00048BF11F8012B28BF20F8023B48BF00F880
:100A0000012B7047004870476403002030B5B0F1F7
:100A10000A024FEA900E71F100034EEA817EB0EBBC
:100A20000E0061EB91014FEA101E4EEA017E10EBC1
:100A30000E0041EB11114FEA102E4EEA016E10EB41
:100A40000E0041EB11214FEA104E4EEA014E10EB21
:100A50000E0041EB1141401841F100014FEAD00076
:100A600040EA41704FEAD10110EB80054FEA810462
:100A700044EA907444EB01046D1944EB0404521BE6
:100A8000A3414FF0000348BF0A3200D530BD401CDF
:100A900041F1000130BD000001694A1C0261087883
:100AA000704700B58FB0CDE90131002105910549AE
:100AB0007944CDE9031011466846FFF701FC0FB0F9
:100AC00000BD0000E5FFFFFF2DE9F0411F46044691
:100AD00003260168072A01F4006004DB08B116A5AB
:100AE00005E016A503E008B115A500E015A521F065
:100AF00010002060A069C01EA0610FB1401EA0615F
:100B00002046AFF300804FB1D4E901213846904729
:100B1000206A401C2062C01C206206E0206AFAE7BE
:100B2000D4E9012115F8010B9047761EF8D2204632
:100B3000AFF30080BDE8F0814E414E006E616E0063
:100B4000494E4600696E66002DE9F047814616461B
:100B50008AB0334878440DC88DE80D003048784499
:100B6000801C03AC0DC884E80D0041F69B3008449E
:100B7000372190FBF1F290FBF1F5A5F1800501FB27
:100B800012041B3C02D56442012000E00020DFF883
:100B900090A080460027FA44AAF1BE0A0DE0E007C3
:100BA00009D03246684607EB47010AEB810100F0A5
:100BB00032FB8DE8070064107F1C002CEFD1184F2A
:100BC0007F44AC3F18E0E80714D007EB04100DF1A8
:100BD000180A90E80E008AE80E00C068F04201D1C1
:100BE00098190890324606A903A800F014FB03AB3D
:100BF00083E807006D10641C002DE4D1324669467D
:100C0000B8F1000F03A802D000F0F1FA01E000F003
:100C100002FBC9E90001C9F808200AB0BDE8F08765
:100C2000143C0000007B00F08000704700487047D3
:100C3000440300207546FFF7F9FFAE4605006946FC
:100C4000534620F00700854618B020B5FFF7DCFAC0
:100C5000BDE820404FF000064FF000074FF00008BD
:100C60004FF0000B21F00701AC46ACE8C009ACE83E
:100C7000C009ACE8C009ACE8C0098D46704704461D
:100C8000AFF300802046FFF7AAFA00004FF0013CC6
:100C900050F8042B51F8043B9A4221D1A2EB0C03EB
:100CA000934313EACC1317D150F8042B51F8043BAB
:100CB0009A4215D1A2EB0C03934313EACC130BD148
:100CC00050F8042B51F8043B9A4209D1A2EB0C03D3
:100CD000934313EACC13DBD04FF00000704700BF02
:100CE000D01A01BAB1FA81F101F0180122FA01F02B
:100CF000CB40C1F12001DBB2C0B2C01A2CFA01F323
:100D0000D11A914311EAC311E6D170475FEA400C52
:100D100008BF91F0000F4FEA8C234FEAC12243EA4B
:100D200051514FEA1C5018BF00F5F0404FEA300017
:100D300018BF41F000415FEA6C5C00F02980BCF113
:100D4000FF3F08BF40F080407047130C06BF1204FD
:100D50004FF0100C4FF0000C130E04BF12020CF1F8
:100D6000080C130F04BF12010CF1040C930F04BF05
:100D700092000CF1020CD30F04BF52000CF1010CD5
:100D800011464FF00002A0F11F00A0EB0C007047CD
:100D900011F0004F08BF704731F000413FF4D5AF6C
:100DA0000B0C06BF09044FF0100C4FF0000C0B0E9B
:100DB00004BF09020CF1080C0B0F04BF09010CF170
:100DC000040C8B0F04BF89000CF1020CCB0F04BF85
:100DD00049000CF1010CCCF12003A0EB0C0022FA2D
:100DE00003F302FA0CF241EA030100F1010070473B
:100DF00020F07F4C80EA030023F07F47ACEB070331
:100E000003F57C5300F0004003F1FF032DE9804916
:100E10004FEA154B09B44FEA144325EA0B4E24EA76
:100E200003480FF2042606EB132749083E785FEAD1
:100E3000320203FB0667C7F5000707FB06F64FEA19
:100E400054374FEAD64606F1020607FB066CCCF192
:100E5000005C4FEA1C472CEA074C07FB06F40CFB2E
:100E600006F504EB15464FEA961634BF00204FF006
:100E700000404FEAD13706FB07FC4FEA1C4C0CFB45
:100E80000BF7D21B03FB0CF761EB07010CFB0EF712
:100E9000B0EB074072EB17420CFB08F734BFA2EB34
:100EA0000742B2EB074261EB17414FEA0C444FEAAD
:100EB000910706FB07FC4FEA1C4C0CFB0BF7B0EB51
:100EC000C74072EB573203FB0CF734BFA2EBC742AB
:100ED000B2EBC74261EB57310CFB0EF7B0EBC7002A
:100EE00072EB57720CFB08F734BFA2EBC702B2EBF0
:100EF000C70261EB5771039F4FEA816141EA92118A
:100F000004EBCC044FEAD1374FEA826206FB07FCC0
:100F100042EA90124FEA80604FEA1C4C0CFB0BF740
:100F2000D21B03FB0CF761EB07010CFB0EF7B0EBD8
:100F3000074072EB17420CFB08F734BFA2EB0742E5
:100F4000B2EB074261EB17414FEA8C554FEA91072C
:100F500004EB9C2406FB07FC4FEA1C4C0CFB0BF734
:100F6000B0EBC74072EB573203FB0CF734BFA2EB78
:100F7000C742B2EBC74261EB57310CFB0EF7B0EB47
:100F8000C70072EB57720CFB08F734BFA2EBC70225
:100F9000B2EBC70261EB577115EB4C254FEA81614B
:100FA00041EA92114FEA82624FEAD13742EA901247
:100FB00006FB07FC44F100044FEA80604FEA1C4C3A
:100FC0000CFB0BF7D21B03FB0CF761EB07010CFBCF
:100FD0000EF7B0EB074072EB17420CFB08F734BF7B
:100FE000A2EB0742B2EB074261EB174115EB1C1570
:100FF0004FEA813141EA92414FEA823242EA90421D
:101000004FEA80304FEA0C7644F1000448EA03438B
:101010004EEA0B484FF0000EB2EB080C71EB0307E1
:1010200024BF624639464EEB0E0E4FF0000B0018FF
:10103000524149414BEB0B0BB2EB080C71EB030730
:101040007BF1000B24BF624639464EEB0E0E4FF08B
:10105000000B0018524149414BEB0B0BB2EB080C53
:1010600071EB03077BF1000B24BF624639464EEB60
:101070000E0E51EA020718BF46F0010616EB0E7677
:1010800055F1000254F1000103D5BDE88901BDE826
:101090000088BDE88901BDE80048B619524141EB1E
:1010A0000101A3F10103704780807F7E7D7C7B7A04
:1010B0007978777676757473727171706F6E6E6D04
:1010C0006C6C6B6A6A6968686766666564646363AA
:1010D00062616160605F5F5E5E5D5D5C5C5B5B5A30
:1010E0005A5959585857575656555555545453539D
:1010F00052525251515050504F4F4F4E4E4D4D4DF8
:101100004C4C4C4B4B4B4A4A4A4949494848484742
:101110004747474646464545454444444443434380
:101120004342424242414141002B26D4770021D024
:101130001CB54FEA370703B44FF010004FF0100111
:101140004FF000000FBCBDE810400BF1010BBBF1EC
:10115000010F08BF5FEA170722BF12F1010211F168
:1011600001014FF0004143F1000300F0004043EA69
:1011700000007047F9D35708DAE746EA064613F14C
:10118000400F4FEA16461FDD13F1200FDFBF164355
:101190000A46002120335B42C8D0C3F1200746EA4B
:1011A000064602FA07F74FEA164646EA0706C3F173
:1011B000200722FA03F201FA07F721FA03F14FF0B0
:1011C000000342EA0702B1E746EA020646EA06469B
:1011D0004FEA164646EA0106BCBF46EA0646360C0A
:1011E0004FF000034FF000024FF000019EE72DE9A1
:1011F000C048934630B491E8380007C831EA400C43
:1012000048BF34EA430C03D5FFF7F2FDFFF78CFF2C
:10121000F0BCBDE800882DE9C048934630B491E8A1
:10122000380007C810F0804F08BF13F0804F03D17B
:1012300000F005F8FFF778FFF0BCBDE8008820F06B
:101240007F4780EA030023F07F4C07EB0C03A3F5F4
:101250007C5300F00040A3F1FE0392F0000F00F079
:10126000B38095F0000F00F077802DE901494FEA37
:1012700011404FEA144621EA004800FB06FC24EA2C
:10128000064708FB06F607FB08F800FB07F718EB14
:1012900006484CEB164C4FEA124B18EB07484FEA46
:1012A00015464CEB174022EA0B4E0BFB06FC25EAD9
:1012B00006470EFB06F607FB0EFE0BFB07F71EEBC1
:1012C000064E4CEB164C4FF000061EEB074E4CEB57
:1012D000174B18EB0B0840F1000018EB0E0B58EB06
:1012E000000840F100008F1A4FF000013CBFC943D5
:1012F000661B14BFB5EB040C00213CBFC943F61BB1
:101300004FEA17444EEA8E0E27EA04454FEA1C477F
:1013100004FB07622CEA074C05FB07F70CFB05F6FC
:1013200004FB0CFC16EB074642EB174216EB0C468F
:1013300042EB1C421BEB060658EB0202414146EA17
:101340009E0601D5BDE80189B619524141EB010164
:10135000A3F10103BDE801894FEA14454FEA1147A3
:1013600024EA054621EA074C05FB07F406FB07F7CC
:101370000CFB06F105FB0CFC11EB074144EB174499
:101380004FEA124711EB0C4144EB1C4422EA074C94
:1013900005FB07F206FB07F70CFB06F605FB0CFC4A
:1013A00016EB074642EB174216EB0C4642EB1C4588
:1013B0006A1854F1000148BF7047B619524141EB19
:1013C0000101A3F10103704795F0000F37D04FEAF8
:1013D00011424FEA144721EA024624EA074C02FB75
:1013E00007F106FB07F70CFB06F402FB0CFC14EB01
:1013F000074441EB17414FEA154714EB0C4441EB0E
:101400001C4125EA074C02FB07F506FB07F70CFB1E
:1014100006F602FB0CFC16EB074645EB174516EBF0
:101420000C4645EB1C42121951F1000148BF7047B0
:10143000B619524141EB0101A3F1010370474FEA94
:1014400014454FEA114724EA054621EA074C05FBFB
:1014500007F106FB07F70CFB06F24FF0000605FB51
:101460000CFC12EB074241EB174112EB0C4251EB23
:101470001C4148BF7047921841EB0101A3F10103E1
:101480007047FEE710B50C4C0A4820604FF4E1307D
:1014900060600020A060E0602061A0610C206061BD
:1014A000204601F02BFB2068C16841F02001C1609B
:1014B00010BD000000380140DC0100207047000032
:1014C00010B586B0002001901548816941F02001D7
:1014D0008161816901F020010491816941F020015D
:1014E0008161806900F0200004900E48416841F05D
:1014F000E06141F48051416001200290032003909B
:101500004FF48050084C00906946204600F0D2F815
:10151000601400906946204600F0CCF806B010BD7B
:1015200000100240000001400014014010B5FFF718
:10153000C7FFBDE8104001F0A1BD72B6FEE710B5CF
:1015400090F821100022022905D00421816380F83F
:101550002020012010BD01680B6823F00E030B60F2
:1015600001680B6823F001030B6090F84030C46BF6
:10157000012101FA03F3636080F8211080F8202034
:10158000104610BD2DE9F05F90F8211000240229CB
:1015900003D004218163012485E001680A6822F0F8
:1015A0000E020A6001680A6822F001020A603F4EDA
:1015B0003E4FB215DFF8F4C0DFF8F090DFF8ECA092
:1015C000DFF8E8B0DFF8E4E00168783F13011502C6
:1015D000ACF1640CA9F15009AAF13C0AABF1280B5B
:1015E000AEF1140E4FF48018B14227D9B9420ED093
:1015F000614512D049451DD0514518D0594518D0E4
:10160000714501D1424615E0294EB14201D1012276
:1016100010E0274E1436B14201D110220AE0244EC8
:101620002836B14206D0224A3C32914201D11A46B4
:1016300000E02A461E49091F0A602BE0B94213D078
:10164000614517D0494522D051451DD059451DD07F
:10165000714501D142461AE0B14202D14FF0807289
:1016600015E0134EB14201D1012210E0104E1436A4
:10167000B14201D110220AE00D4E2836B14206D007
:101680000B4A3C32914201D11A4600E02A460749F2
:1016900080394A60012180F82110002180F8201053
:1016A000416B01B188472046BDE8F09F80000240B1
:1016B000080402402DE9F84FDFF8C8910024A9F191
:1016C000040B23460F2709F1040AABF1040ED1E005
:1016D0000125A54006EA0502AA4276D1DFF8A8C195
:1016E0004E68A6EB0C0866452BD00DDC032E34D0DB
:1016F00005DC36B3012E19D0022E2FD11BE0112E9E
:1017000016D0122E2AD119E0B8F5881F19D006DCA0
:10171000B8F5803F15D0B8F5801F1FD111E0B8F59E
:10172000001F0ED0B8F5041F18D10AE0CB6815E0F1
:10173000CB681B1D12E0CB6808330FE0CB680C337D
:101740000CE08B682BB1012B4FF0080303D04561EF
:1017500004E0042302E0056100E00023FF2A01D831
:10176000064601E000F104064FEA840501D9A5F11F
:101770002005D6F8008007FA05FC28EA0C0803FAD1
:1017800005F548EA0508C6F800804D68ED0070D5FB
:101790003E4DAE6946F00106AE61AD6924F0030628
:1017A00005F0010500953A4D06EB050CDCF80850F4
:1017B000A607360F07FA06F825EA0805DFF8D480F1
:1017C000404503D14FF0000825E052E0DFF8C88023
:1017D000404502D14FF001081DE0DFF8C0804045D0
:1017E00002D14FF0020816E0DFF8B480404502D184
:1017F0004FF003080FE0DFF8AC80404502D14FF016
:10180000040808E0DFF8A080404502D14FF0050849
:1018100001E04FF0060808FA06F848EA0508CCF897
:1018200008804D68D9F80060ED024D4601D5164399
:1018300000E096432E604D68DAF80060AD02554630
:1018400001D5164300E096432E604D68DBF800603A
:10185000AD035D4601D5164300E096432E604D680A
:10186000DEF80060ED03754601D5164300E09643AF
:101870002E60641C0A681646E2407FF429AFBDE87A
:10188000F88F000008040140000011100010024011
:101890000000014000080140000C01400010014020
:1018A0000014014000180140001C01400AB1016110
:1018B00070470904FBE7000001488068704700009A
:1018C0001C00002002488168027811448160704742
:1018D0001C000020074810B5016841F010010160AC
:1018E000032000F075F80F2000F006F800F024F84F
:1018F000002010BD0020024070B50D4D04464FF48D
:101900007A712878B1FBF0F00A490968B1FBF0F070
:1019100000F0EEFA48B9102C07D200222146501EE2
:1019200000F036F800206C6070BD012070BD000032
:101930001C000020280000200C4808B5816941F0F7
:1019400001018161816901F001010091C16941F0EA
:101950008051C161C06900F0805000900448416826
:1019600021F0E06141F00071416008BD00100240CB
:1019700000000140002809DB00F01F020121914016
:101980004009800000F1E020C0F80011704700001D
:10199000F0B40E4B1B680C46C3F30223C3F10705DA
:1019A000042D00D90425191D072901D2002300E0C8
:1019B000DB1E012606FA05F1491E214099409E4092
:1019C000761E16403143F0BC01F011BE0CED00E074
:1019D000064900F0070208684FF6FF03184040EA86
:1019E0000220034A10430860704700000CED00E03D
:1019F0000000FA05BFF34F8F05480168054A01F45E
:101A0000E06111430160BFF34F8F00BFFDE70000AD
:101A10000CED00E00400FA052DE9F0470F46050043
:101A200061D0434E306800F00700B84209D23068F8
:101A300020F0070038433060306800F00700B842FB
:101A400051D128683B4C810712D5400703D5606807
:101A500040F4E06060602878000703D5606840F4D7
:101A6000605060606068A96820F0F0000843606022
:101A70002878C00728D06868012810D0216802287B
:101A800010D0890700292EDA616821F00301014393
:101A90006160FFF711FF804641F288390DE021684F
:101AA0008903EFE78901EDE7FFF706FFA0EB0801E7
:101AB000494502D90320BDE8F0876068696800F0F5
:101AC0000C00B0EB810FEFD1306800F00700B84296
:101AD0000BD9306820F0070038433060306800F0E0
:101AE0000700B84201D00120E5E72878400705D576
:101AF0006068E96820F4E0600843606028780007C7
:101B000006D56068296920F4605040EAC100606031
:101B100000F038F86168084AC1F30311515CC8400D
:101B20000649086006480068FFF7E6FE0020C2E7A5
:101B30000020024000100240D84600082800002083
:101B4000200000200448054900684968044AC1F3A0
:101B50000221515CC840704728000020001002405C
:101B6000E84600080448054900684968044AC1F38A
:101B7000C221515CC840704728000020001002407C
:101B8000E84600080E4A51680E4801F00C03042B89
:101B900011D0082B0FD10C48C1F38343C903C05C9B
:101BA0000AD55168084AC1F34041921E515C054A6A
:101BB0005043B0FBF1F070470449484370470000C0
:101BC0000010024000127A00C846000800093D00DB
:101BD0002DE9F84F040070D02078C04DC00749D0DF
:101BE0006868C0F38100012807D06868C0F38100ED
:101BF000022809D16868C00306D52868800339D552
:101C000060680028E7D035E06068B0F5803F0BD011
:101C100010B1B0F5A02F11D0286820F480302860D2
:101C2000286820F4802002E0286840F48030286092
:101C3000606890B1FFF740FE06460AE0286840F46D
:101C400080202860F0E700BFFFF736FE801B642885
:101C500073D828688003F7D50CE0FFF72DFE064601
:101C600005E000BFFFF728FE801B6428F0D8286835
:101C70008003F7D420789A4E80074FF001094FF087
:101C8000000839D5686810F00C0F07D06868C0F3F9
:101C90008100022809D16868C00306D4286880073B
:101CA00014D52069012808D110E02069B0B1C6F828
:101CB0000090FFF701FE074605E00AE1FFF7FCFD93
:101CC000C01B0228C4D828688007F7D52868616936
:101CD00020F0F80040EAC10028600DE0C6F800805E
:101CE000FFF7EAFD074604E0FFF7E6FDC01B022808
:101CF00023D828688007F7D4207800072CD57948A6
:101D0000A169D9B1C0F80090FFF7D6FD074604E0FD
:101D1000FFF7D2FDC01B02280FD8686A8007F7D5ED
:101D200071484FF4FA510068B0FBF1F0009000BF29
:101D30000098411E0091FAD20EE080E0C0F80080C9
:101D4000FFF7BAFD074604E0FFF7B6FDC01B022807
:101D500075D8686A8007F7D42078400760D5E869AD
:101D60000027C00008D4E86940F08050E861E869C5
:101D7000012700F0805000905C480168C90513D429
:101D80000168834641F480710160FFF795FD82464A
:101D900006E000BFFFF790FDA0EB0A0064284ED8D4
:101DA000DBF80000C005F5D5E06801280AD008B1CD
:101DB000052813D0286A20F001002862286A20F044
:101DC000040002E0286A40F001002862E06841F265
:101DD000883B98B1FFF770FD82460BE0286A40F01F
:101DE00004002862EEE700BFFFF766FDA0EB0A01E2
:101DF00059455AD8286A8007F6D50CE0FFF75CFDF4
:101E0000824605E0FFF758FDA0EB0A0159454CD882
:101E1000286A8007F6D41FB1E86920F08050E86195
:101E2000E06988B36968C1F38101022944D00228BE
:101E3000C6F8608004D0FFF73FFD044638E034E088
:101E4000FFF73AFD074604E0FFF736FDC01B022806
:101E50002BD828688001F7D4206AB0F5803F05D1DF
:101E60006868A16820F4003008436860D4E908017C
:101E70000843696821F4741108436860C6F86090EB
:101E8000FFF71AFD044606E025E000BFFFF714FD4A
:101E9000001B022809D828688001F7D51BE000BF85
:101EA000FFF70AFD001B022802D90320BDE8F88FC6
:101EB00028688001F4D40EE00128F7D06868226A0F
:101EC00000F48031914204D1616A00F470108842BC
:101ED00001D00120EAE70020E8E7000000100240FE
:101EE000000042428004424228000020007000406E
:101EF00010B5401EB0F1807F01D3012010BD4FF01E
:101F0000E02460610F21601701F071FB0020A061E7
:101F100007202061002010BD7047704710B590F871
:101F20003C20012A22D0012280F83C20CA688C681B
:101F300022F4407222434C6822F4806222430C68EF
:101F400022F4006222430C6922F4805222434C693D
:101F500022F400522243C969002322F480420A433A
:101F600001684A6480F83C30002010BD022010BD9A
:101F700070B590F83C20012A2CD0012480F83C4018
:101F8000022280F83D2003685A689D6822F070069E
:101F90000A6832435A60104B02689A420ED00F4BC7
:101FA0009A420BD0B2F1804F08D00D4B9A4205D027
:101FB0000C4B9A4202D00C4B9A4204D1496825F04E
:101FC00080031943916080F83D40002180F83C1067
:101FD000084670BD022070BD002C01400034014055
:101FE0000004004000080040000C004010B5040050
:101FF00003D094F83D0010B107E0012010BD00208F
:1020000084F83C00204600F01FF8022084F83D00D0
:10201000211D206800F0D4FF012084F8460084F8D8
:102020003E0084F83F0084F8400084F8410084F8C2
:10203000420084F8430084F8440084F8450084F8A2
:102040003D00002010BD000008B51A4A01681A487A
:10205000914208D1816941F400618161806900F495
:102060000060009008BD154A91420ED1C16941F04F
:102070000401C161C069002200F004000090012148
:102080001E20FFF785FC1E2010E00D4A9142E9D189
:10209000C16941F01001C161C069002200F0100067
:1020A000009002213620FFF773FC3620BDE808407F
:1020B000FFF760BC002C0140001002400008004007
:1020C0000010004090F83D10012901D00120704718
:1020D000022180F83D100168CA6842F00102CA601E
:1020E00000680E4988420ED00D4988420BD0B0F1ED
:1020F000804F08D00B49884205D00B49884202D056
:102100000A49884204D1816801F00701062903D0F9
:10211000016841F00101016000207047002C01407E
:10212000003401400004004000080040000C004062
:1021300070B5044690F83C000025012817D0012610
:1021400084F83C60022084F83D002068826822F018
:10215000770222F47F4282600868502838D00DDC74
:1021600020284FD005DC90B3102811D14AE002207E
:1021700070BD302846D040280AD13BE060282FD0DF
:1021800070280DD0B0F5805F03D0B0F5005F12D09D
:10219000012584F83D60002084F83C00284670BD8D
:1021A000CB68D1E90121206800F05DFF20688168DB
:1021B00041F0770109E0CB68D1E90121206800F006
:1021C00052FF2068816841F480418160E1E719E0B5
:1021D000CA684968206801F0A3F85021206806E029
:1021E000CA684968206801F0ACF86021206800F0F6
:1021F0008DFFCEE7CA684968206801F091F8402158
:102200002068F4E7226801461046F0E72DE9F04126
:102210000D46040003D094F83D0018B108E00120F9
:10222000BDE8F081002084F83C00204600F040F832
:10223000022084F83D002068816844F2070291433F
:102240008160211D206800F0BBFE226890689169C2
:10225000166A2B68AF69034340F20330814341EAB9
:102260000721A868EF6908434FF6FC418843E968F5
:1022700040EA0720014328692F6A000140EA07303D
:10228000084369686D6926F0220646EA0515294368
:1022900093602268906154F8460B0162012004F8B3
:1022A0001F09E0752076E0762077A0750020B7E75B
:1022B000704770B590F83E60044690F83F5090F833
:1022C000423090F84320022021B104290ED0012E83
:1022D0001BD114E0012E18D1012B16D184F83E0039
:1022E00084F8420001220021206820E0012D0CD159
:1022F000012A0AD184F83F0084F8430014E0012D3C
:1023000003D1012B01D1012A01D0012070BD84F835
:102310003E0084F83F0084F8420084F84300012224
:102320000021206800F092FE01220421206800F0C4
:102330008DFE2068016841F001010160002070BD40
:10234000704770B50446006801694FF00005C94345
:10235000890715D4C168C943890711D4E91E0161F1
:1023600001202077206880698007204602D0FFF78F
:10237000E7FF04E000F011F9204600F0D1F92577DD
:1023800020680169C943490717D4C168C94349078F
:1023900013D46FF004010161022020772068806966
:1023A00010F4407F204602D0FFF7CAFF04E000F09F
:1023B000F4F8204600F0B4F9257720680169C94394
:1023C000090716D4C168C943090712D46FF0080180
:1023D0000161042020772068C0698007204602D070
:1023E000FFF7AEFF04E000F0D8F8204600F098F9BF
:1023F000257720680169C943C90617D4C168C94354
:10240000C90613D46FF010010161082020772068FD
:10241000C06910F4407F204602D0FFF791FF04E02E
:1024200000F0BBF8204600F07BF9257720680169B1
:10243000C943C90708D1C168C943C90704D1891E66
:102440000161204600F006FA20680169C9430906C7
:1024500009D4C168C943090605D46FF08001016140
:102460002046FFF759FD20680169C943490609D490
:10247000C168C943490605D46FF040010161204697
:1024800000F002FA20680169C94389060BD4C168CB
:10249000C943890607D46FF0200101612046BDE8D9
:1024A0007040FFF73ABD70BD10B586B000210091B5
:1024B0000191029103911E4B02681E4802211E4C9D
:1024C0009A4218D1826942F0400282618069039188
:1024D00000F0400004904FF42060CDE9000169460F
:1024E0001648FFF7E7F8606820F0C00040F0E060B1
:1024F00040F0C00018E0124B9A4216D1826942F0B7
:10250000200282618069039100F0200004904FF462
:102510004050CDE9000169460A48FFF7CBF86068F2
:1025200040F0E06040F48050606006B010BD0000F4
:10253000002C014000100240000001400018014042
:10254000000800400014014070B5044690F83C00BB
:10255000002501280FD0012084F83C006AB1042A2C
:102560000FD0082A11D00C2A13D00125002084F89E
:102570003C00284670BD022070BD206800F0CEFDF2
:10258000F4E7206800F0FAFDF0E7206800F02CFE88
:10259000ECE7206800F05CFEE8E7704710B5040047
:1025A00003D094F83D0010B107E0012010BD0020D9
:1025B00084F83C00204600F01EF8022084F83D001C
:1025C000211D206800F0FCFC012084F8460084F8FE
:1025D0003E0084F83F0084F8400084F8410084F80D
:1025E000420084F8430084F8440084F8450084F8ED
:1025F0003D00002010BD704770B5044690F83C00C7
:1026000000260D4601280FD0012084F83C006AB155
:10261000042A1DD0082A2FD00C2A3FD001260020E2
:1026200084F83C00304670BD022070BD206800F088
:1026300075FD2068816941F0080181612068816928
:1026400021F004018161206881692A69114311E048
:10265000206800F093FD2068816941F40061816188
:102660002068816921F480618161206881692A691B
:1026700041EA02218161D2E7206800F0B5FD2068BF
:10268000C16941F00801C1612068C16921F00401FC
:10269000C1612068C1692A69114311E0206800F016
:1026A000D7FD2068C16941F40061C1612068C1693A
:1026B00021F48061C1612068C1692A6941EA02216F
:1026C000C161ACE710B5040003D094F83D0010B12F
:1026D00007E0012010BD002084F83C00204600F0F7
:1026E0001EF8022084F83D00211D206800F068FCDF
:1026F000012084F8460084F83E0084F83F0084F806
:10270000400084F8410084F8420084F8430084F8D3
:10271000440084F8450084F83D00002010BD704757
:102720007047000010B50446022249B104290ED0BA
:10273000082913D094F84100012816D0012010BDBB
:1027400094F83E000128F9D184F83E200FE094F877
:102750003F000128F2D184F83F2008E094F84000BF
:102760000128EBD184F8402001E084F841200122C7
:10277000206800F06BFC13492068134A884201D09E
:10278000904203D1436C43F4004343642068884281
:102790000DD090420BD0B0F1804F08D00B49884249
:1027A00005D00B49884202D00A49884204D1816889
:1027B00001F00701062903D0016841F00101016021
:1027C000002010BD002C01400034014000040040F6
:1027D00000080040000C004030B504460D4600687B
:1027E000002200F033FC194B41F2111120688A10CD
:1027F000984202D0164B984209D1036A0B4206D187
:10280000036A134203D1436C23F4004343642068FA
:10281000036A0B4206D1016A114203D1016821F01B
:102820000101016001203DB1042D08D0082D09D01F
:1028300084F84100002030BD84F83E00FAE784F8B7
:102840003F00F7E784F84000F4E70000002C014067
:1028500000340140094988420AD108680068C1066D
:102860000748018801D5491E00E0491C01807047D6
:1028700004498842FBD100F077BF00002C00002003
:10288000000000200C0100207047704770470000D6
:10289000F8B5016804460868CA684B6910F00F0F64
:1028A0004FF000055AD003F0010602F49077374349
:1028B00065D0C10705D0D10503D5616C41F0010198
:1028C0006164410705D5D90703D0616C41F002016D
:1028D0006164810705D5D90703D0616C41F004011B
:1028E0006164010707D502F02001314303D0616C18
:1028F00041F008016164616C00293BD0800604D579
:10290000900602D5204600F08AFD20684069616C7F
:10291000C0F3801001F00801014320462BD000F0E5
:1029200057FD20684069400621D52068143050E8E2
:10293000001F21F0400140E80012002AF5D1E06BB1
:10294000A8B16D494163E06BFEF71CFE002811D071
:10295000E06B416B01B0BDE8F040084783060ED53F
:1029600093060CD52046BDE8F84000F058BD20463F
:10297000FFF78CFFF8BDFFF789FF6564F8BD266B94
:102980002023012E7CD1C6067AD5D60678D50868D4
:102990004868009048694FF00206400640D5E16B58
:1029A000086840680004000CE8D0A28D8242E5D996
:1029B000E085886920282DD020680C3050E8001F61
:1029C00021F4807140E80012002AF5D12168143109
:1029D00051E8000F20F0010041E80002002AF5D183
:1029E0002068143050E8001F21F0400140E8001238
:1029F000002AF5D184F84230256320680C3050E875
:102A0000001F21F0100140E80012002AF5D1E06B10
:102A1000FEF795FD6663A08DE18D401A81B22AE034
:102A2000A08DE18D401A81B2E08D0028A6D000294A
:102A3000A4D022680C3252E8000F20F4907042E8D3
:102A40000007002FF5D12068143050E8002F22F045
:102A5000010240E80027002FF5D184F842302563B9
:102A600020680C3050E8002F22F0100240E80023CC
:102A7000002BF5D166632046FFF707FFF8BDFFE79F
:102A800005062BD5150629D594F841002128F5D146
:102A9000A068B0F5805F01D12069B0B1206A411C07
:102AA0002162216800784860E08C401E0004000C20
:102AB000E084E3D12068C16821F08001C160206812
:102AC000C16841F04001C160D8E7206A0088C0F3C6
:102AD00008004860206A801C2062E5E74006CDD5EA
:102AE0005006CBD5CA68204622F04002CA6084F85E
:102AF000413000F076F8C1E7C133000870B504003A
:102B000004D094F84100002510B106E0012070BD0A
:102B100084F84050204600F023F8242084F8410037
:102B20002068C16821F40051C160204600F0D8FC43
:102B30002068016921F4904101612068416921F018
:102B40002A0141612068C16841F40051C160656497
:102B5000202084F8410084F842006563002070BDA5
:102B600030B585B000240094019402940394006869
:102B7000184988422CD11848816941F4804181610B
:102B8000816901F480410491816941F0040181610E
:102B90008069124D00F0040004904FF40070009022
:102BA000022001900320039069462846FEF782FD2B
:102BB0002815CDE90004694628460294FEF77AFDFF
:102BC000002211462520FEF7E3FE2520FEF7D2FE67
:102BD00005B030BD0038014000100240000801403F
:102BE00070477047FEE7000030B585B000241B48F1
:102BF0000094019402940394816941F4807181618D
:102C0000816901F480710491816941F04001816121
:102C1000816901F040010491816941F020018161E5
:102C2000816901F020010491816941F00401816111
:102C300080690B4D00F00400049000220121284619
:102C4000FEF734FE0220012103900091CDE901142A
:102C500069462846FEF72EFD05B030BD0010024043
:102C60000020014010B596B000240F9410941194E8
:102C7000129413941C2168461494FDF7EDFB202157
:102C800007A8FDF7E9FB2B482949C0E900144FF6D6
:102C9000FF71C0E90241046144618461FFF7A6F954
:102CA00008B1FEF74AFC4FF480500F900FA921485D
:102CB000FFF73EFA08B1FEF740FC1E48FFF76EFC36
:102CC00008B1FEF73AFC139413A91A481494FFF7BD
:102CD0004FF908B1FEF731FC00940194029403947B
:102CE000049405940022694612480694FFF72CFCD0
:102CF00008B1FEF722FC042269460E48FFF724FCC7
:102D000008B1FEF71AFC0794089409944FF4005098
:102D10000A94CDE90B4007A906480E94FFF7FEF888
:102D200008B1FEF70AFC0348FFF7BEFB16B010BD62
:102D3000002C01402402002010B58EB0002407941E
:102D4000089409940A940B941C2168460C94FDF78E
:102D500083FB21481F49C0E900144FF6FF71C0E909
:102D6000024104618461FFF741F908B1FEF7E5FB18
:102D70004FF48050079007A91748FFF7D9F908B119
:102D8000FEF7DBFB1448FFF709FC08B1FEF7D5FBA3
:102D90000B940BA910480C94FFF7EAF808B1FEF762
:102DA000CCFB009401940294002269460A480494E2
:102DB000FFF7CAFB08B1FEF7C0FB042269460648CC
:102DC000FFF7C2FB08B1FEF7B8FB0348FFF76CFB47
:102DD0000EB010BD000800406C0200201CB500249D
:102DE0000E4800940C490194C0E900144FF6FF719D
:102DF000C0E902418461FFF7F9F808B1FEF79DFBD5
:102E00000094694605480194FFF7B2F8002801D004
:102E1000FEF793FB1CBD000000100040B402002030
:102E20000C4810B50A4901604FF4E13141600021BE
:102E300081600C22C160C0E904128161C161FFF7A9
:102E40005DFE002803D0BDE81040FEF776BB10BD44
:102E500000380140FC020020FEE70000184810B5D1
:102E6000816986B041F040018161816901F04001D2
:102E70000491816941F040018161806900F0400066
:102E8000049002200190032003900E48416821F035
:102E9000C00141F0E06141F0C001416040150A4CC1
:102EA000009069462046FEF705FCE0140090694654
:102EB0002046FEF7FFFB06B0BDE8104000F0F0B979
:102EC000001002400000014000180140FEE7000031
:102ED0000D490C480D4A0860002048608860C860B1
:102EE000C861C1E9042088612031094AC1E9002094
:102EF0008860C860074A0A61C8615202C1E90520BA
:102F00007047000000606A479C010020EC51383D8A
:102F10000000C8420000A04070477047FEF7D2BCD6
:102F200030B58FB028216846FDF796FA14210AA81B
:102F3000FDF792FA01210804CDE900100024029463
:102F400002250491CDE907504FF4E010099068463E
:102F5000FEF73EFE08B172B6FEE70F20CDE90A0586
:102F60004FF48060CDE90C4002210AA80E94FEF7D0
:102F700053FD002801D072B6FEE70FB030BD704798
:102F8000084A126838B1042807D0082807D00C284E
:102F900000D1116470475163704791637047D163EA
:102FA00070470000540100200148FFF7CAB9000033
:102FB0002C0000200148FFF7C4B900000C010020DC
:102FC000F0B502681C4B1D4D1D4E1E4F1E4C4FF0A0
:102FD000804C984209D0A04207D0604505D0A84255
:102FE00003D0B04201D0B84204D122F0700E4A683A
:102FF00042EA0E02984209D0A04207D0604505D0AF
:10300000A84203D0B04201D0B84203D122F44075A7
:10301000CA682A434D6922F080022A4302608A6806
:10302000C2620A688262984201D0A04201D1096955
:10303000016301214161F0BD002C0140000400400A
:1030400000080040000C00400034014010B501F0C1
:103050001F030121046A99408C430462016A9A406B
:103060001143016210BD10B5846842EA032224F4C2
:103070007F440A432243826010BD000030B52048DF
:103080008BB0C16941F00401C161C0691E4D00F0FF
:10309000040009901B480024C5E900044FF6FF70A6
:1030A000C5E902402C61AC610320CDE90004012098
:1030B000CDE902040494CDE9054007946946284609
:1030C0000894FFF7A3F8286844622968A01E0861E5
:1030D0002868C16841F00101C1602868016841F0B9
:1030E00004010160002201211E20FEF751FC1E2078
:1030F000FEF740FC3C212846FFF7DBF80BB030BD63
:1031000000100240000800402C000020826822F0DD
:1031100070020A4342F0070181607047F0B5036A0C
:10312000026A22F00102026242688469124E24F0AF
:1031300073050C682C4323F002058B682B430D4D5F
:10314000A84201D0B04205D123F00807CB683B4329
:1031500023F00403A84201D0B04205D14D6922F406
:10316000407215438A692A43426084614968416319
:103170000362F0BD002C014000340140F0B5026A4A
:10318000036A23F010030362436884690D6824F422
:10319000E64444EA05248D6822F0200242EA051242
:1031A0000F4D104EA84201D0B04206D1CF6822F098
:1031B000800242EA071222F04002A84201D0B04247
:1031C00007D14D6923F4406343EA85038D6943EADF
:1031D000850343608461496881630262F0BD000039
:1031E000002C014000340140F0B5026A036A23F468
:1031F000807303624368C46922F4007224F073058B
:103200000C68124E2C438D6842EA05220E4DA842EE
:1032100001D0B04206D1CF6822F4006242EA072210
:1032200022F48062A84201D0B04207D14D6923F454
:10323000405343EA05138D6943EA05134360C461B3
:103240004968C1630262F0BD002C014000340140B6
:1032500030B5046A026A22F4805202624268C3698D
:103260000D6823F4E64343EA05238D6824F40054F3
:1032700044EA0534084DA84202D0084DA84204D1C2
:103280004D6922F4804242EA85124260C361496876
:103290000164046230BD0000002C01400034014094
:1032A0001C4810B5816988B041F400618161806972
:1032B000194900F40060079018480024016040F6A6
:1032C0000F61C1600121C0E901140461FFF7FAF93F
:1032D000602000904FF4FA70CDE901044FF4807043
:1032E0000394CDE90504002269460C480494FFF7D5
:1032F00083F900210948FFF715FA042269460748B7
:103300000194FFF779F904210448FFF70BFA08B09C
:1033100010BD000000100240002C014054010020AC
:1033200010B5036A046A24F001040462846924F07D
:10333000F00444EA021423F00A020A4384610262A0
:1033400010BD10B5036A046A24F010040462846995
:1033500023F0A00324F4704444EA023243EA01114A
:103360008261016210BD000008B5002202213620F2
:10337000FEF70EFB3620FEF7FDFA0E48C16941F05C
:103380001001C161C0690C4900F0100000900B48A9
:10339000016041F28731C16040F2CF2141600021DC
:1033A00081600161FEF722FEBDE808400348FEF798
:1033B00089BE000000100240001000400C010020F7
:1033C00010B5406A0021C185C184FFF75FFA10BDC6
:1033D00001680C3151E8002F22F4907241E800237B
:1033E000002BF5D10168143151E8002F22F00102C1
:1033F00041E80023002BF5D1016B012909D10168B7
:103400000C3151E8002F22F0100241E80023002B7C
:10341000F5D1202180F8421000210163704708B5E2
:1034200090F84210222901D0022008BD82684FF492
:1034300080539A4201D1016921B1816A9A421BD01D
:103440004AB10AE00268816A5268C2F308020A803F
:10345000816A891C08E0026972B10268526802F050
:103460007F020A70816A491C8162C18D491E09046C
:10347000090CC18503D01BE002685268F1E70168BE
:10348000CA6822F02002CA600168CA6822F4807209
:10349000CA6001684A6922F001024A61202180F86D
:1034A000421000214163026B012A03D0FFF798FB11
:1034B000002008BD016301680C3151E8002F22F0A3
:1034C000100241E80023002BF5D101680A68D206FA
:1034D00002D50A6849680091818DFFF7D6F9E7E7C0
:1034E00070B5044600680169E26821F44051114357
:1034F00001612169A0680843616908432168CA68BD
:1035000041F20C639A430243CA6020684169A26990
:1035100021F44071114341611E492068884202D163
:10352000FEF720FB01E0FEF70DFB00EBC00101EB15
:103530000012606864218000B2FBF0F3B3FBF1F38A
:103540006FF018067343B2FBF0F5B2FBF0F605EB33
:103550008305322303EB0515B5FBF1F5B6FBF1F658
:1035600005F0F00505EB0615B2FBF0F6B2FBF0F046
:10357000B0FBF1F06FF01802504306EB800003EB54
:103580000010B0FBF1F0216800F00F0028448860C3
:1035900070BD000000380140084810B50168086897
:1035A00000F008020648427049680170012100F0ED
:1035B0008FF9BDE810400148FFF76AB9DC0100202F
:1035C00018000020FEE7490050EAC12018BF04207F
:1035D0004A0D18BF40F0010040F2FF72B2EB515F9C
:1035E00008BF40F00200012808BF05207047090706
:1035F000090E002804DB00F1E02080F80014704779
:1036000000F00F0000F1E02080F8141D7047303802
:103610000A2801D20120704700207047704700003F
:1036200004E000BF11F8013B1844C0B2521ED2B2F0
:10363000F8D2704704490A685206FCD5024AC1B262
:10364000121D11607047000000380140006870478B
:103650002DE9F0410446006800F0BEFF1549A06066
:10366000884205D81449884202DC0020A060E0614D
:10367000A568E069294600F073FDE0610746284629
:10368000E16800F0A9FFA16900F0DAFE06463946BC
:10369000606900F0D5FE07462946206900F0D0FE9B
:1036A000394600F05DFD314600F05AFDE56060608E
:1036B000BDE8F0810000A0C10000A041194D002428
:1036C000FEF708F9FFF72CFCFFF78EFAFFF786FBF1
:1036D000FFF7C8FAFFF7A4FBFFF72EFB00F000FA94
:1036E000FDF7D0FE00F022F800F09CFAFDF71EFF77
:1036F000FFF73AFEFFF7ECFB00F0FEF9002CFBD1E0
:10370000002000F079FA284600F06EFE01460648D7
:1037100000F0D0FA00F0A0FA012400F0EDF900F07A
:10372000EBF9E9E7C02709009C01002000B585B04E
:10373000FFF794FB0A48816941F04001816180698B
:10374000694600F04000049001200190032003909E
:103750004FF4007000900348FDF7ACFF05B000BDCA
:1037600000100240001801402DE9FC413D4C6078FA
:10377000012874D13C480068406A3C49B1F9001006
:10378000C1EB01410844A060616811F0010F01F133
:103790000101616012D100F027FE01463448FFF7B5
:1037A00057FF344A0146904201DD114603E032489A
:1037B000814200D90146314800F07CFA3048006867
:1037C000C06A401C00F028FE2E4900F02BFD00F0DE
:1037D0009BFC00222C4B00F0BBFA00222B4B00F08C
:1037E000B7FA0546D4E902700E46381A00F0FCFD1F
:1037F000274900F017FD274900F014FD00F084FC74
:103800002A46334600F0A4FA00F0FAFB0546E760CA
:1038100000F0EAFD0146194800F04EFA0646B0F500
:10382000000F01DB002002E080F00046012000F0E4
:10383000E3F91948864200DD0646304600F0B4FD43
:1038400080B200F023FA0A48FFF700FF00F05CFCAA
:10385000CDE90001294611A0A268FCF7E9FCBDE80A
:10386000FC810000040000202C000020000000204B
:103870009C01002000004843000048C3BC01002018
:103880000C0100200000C84200408F4000004E4064
:103890000000FA440000F04100C05A45CAB5BCCA55
:1038A000D6B5CBD9B6C8A3BA25642E20CAB5BCCA32
:1038B000CEBBD6C3D6B5A3BA25642C20C4BFB1EA0B
:1038C000CEBBD6C3D6B5A3BA252E30660A000000FB
:1038D0002DE9F041DFF84C80054640460C46B8F82B
:1038E0000610C38800680A19D8F800701844802AA6
:1038F0000AD9C1F180018EB232462946FCF767FD34
:10390000A21BA919384601E022462946FCF75FFDB3
:1039100098F80610214401F07F01A8F80610BDE8D0
:10392000F0810000800000202DE9F34F81B06A4D46
:10393000002000904FF0FF0AEB88AA882889802198
:1039400000F04CF984B2092C6ED36889A94698BB63
:1039500080230020B9F80470DFF880B1E51ED9F8A3
:1039600000602CE03A18B2FBF3FC114603FB1C127A
:1039700016F802C04A1CB2FBF3F803FB1822B25C33
:103980004CEA022C8A1CB2FBF3F803FB1822B25C4F
:103990004FEA0248CA1CB2FBF3F103FB1121715C30
:1039A00048EA01614CEA010CDC4506D13844B0FB21
:1039B000F3F103FB110006E017E0401C80B2A842BF
:1039C000D0DB4FF0FF3001B2002913DB0122A9F850
:1039D0000A208AB2A9F80420B9F80630B9F808001C
:1039E000802100F0FBF809281EDBB9F808004D46DD
:1039F00058B11CE0E41E3819C21700EB526222F0E5
:103A00007F02801AA9F804000EE028792968421D77
:103A1000801D02F07F0200F07F008A5C085C42EAB1
:103A200000202881A04202D95046BDE8FE8F82B214
:103A3000A8881118491E8029296801440CDDC0F1AD
:103A40008000C2B20098FFF7EBFD297A2A79114471
:103A50008139CAB2296802E0521ED2B20098FFF73B
:103A6000DFFDAB882A892E689C18611ECF1701EBF9
:103A7000576727F07F07C91B715C814227D1802CD3
:103A80000DD9C3F1800084B2F11822460198FCF7E9
:103A90009EFC28892968021B0198204401E0F11846
:103AA0000198FCF794FC02982989018028792A68FA
:103AB00000F1090101F07F0112F801A0297A084400
:103AC00000F07F00A880002028816881ACE75B1CA3
:103AD00003F07F00F6E7000080000020535A4859A9
:103AE00004480021016141611830A0F10C01086017
:103AF000002070477400002070B5A2B00020344C44
:103B0000ADF88000451E20A96846FFF70DFF132879
:103B100041D006DC10280BD0112828D0122804D15F
:103B200036E014283AD015283BD022B0284670BD84
:103B30009DF80A20DDF80B109DF80E3042EA0121B5
:103B4000DDF80F209DF8040043EA02229DF81230B0
:103B5000DDF81360012843EA062306D00228D2D1FB
:103B60001C4800BF00F0A2F8CDE71B48FAE79DF81B
:103B70000A00DDF80B1040EA01209DF8041001292D
:103B8000C1D100F031FC0146134800F093F8BAE7C8
:103B900000F062F8B7E700F045F8B4E7FDF72AFF58
:103BA000B1E79DF80A00DDF80B1040EA01209DF80E
:103BB0000410012901D00229A5D100EBC00101EBBD
:103BC0000010216805EB8000C862E0609BE7000000
:103BD0000C010020BC0100209C01002010B504460F
:103BE0009A4201D8981A01E0881A184480B2844297
:103BF00000D9002010BD000010B5094C207048B15C
:103C000000210846FFF7BCF96188BDE81040042098
:103C1000FFF7B6B961880020FFF7B2F90021F4E799
:103C200004000020094910B50020487002464FF4F6
:103C300000710748FDF73AFE00210648FEF7CCFD6B
:103C4000BDE8104004210348FEF7C6BD0400002073
:103C50000018014054010020094910B501204870A6
:103C6000024641020748FDF721FE00210648FEF703
:103C700059FDBDE8104004210348FEF753BD000084
:103C80000400002000180140540100204FF461613D
:103C9000884200D90846014603484180007800B1B7
:103CA0000420FFF76DB9000004000020103080E808
:103CB0000E007047016070472DE9F041044600682E
:103CC00000F08AFC1549A060884204DA1449884251
:103CD00001D20020A06005462946E06900F040FAC4
:103CE000E06107462846E16800F076FCA16900F033
:103CF000A7FB06463946606900F0A2FB0746294645
:103D0000206900F09DFB394600F02AFA314600F0A8
:103D100027FAE5606060BDE8F0810000CDCC4C3E44
:103D2000CDCC4CBE10B500290AD00878002807D0A9
:103D300005487844FCF7AAFF002801D0002010BDF8
:103D40000248784410BD0000720A00006A0A0000B0
:103D50002DE9C04130B4DFF8A0C23CEA111418BF0D
:103D60003CEA131400F0EC8081EA03051CEA11140C
:103D700044EAD57418BF1CEA131500F0C780A4EB01
:103D800005044FF0004545EAC12145EAC32341EA55
:103D9000505143EA525304F17F74994204F50034C0
:103DA0004FEAC0204FEAC22208BF904200F09C8038
:103DB0004FEA13650FF24016765D4FEA134506FB96
:103DC00005F7C7F1807706FB07F74FEAD737A7FB60
:103DD00003687642C8F58038A7FB06CE38BFA8F145
:103DE000010807FB08E64FF0000EA6FB028CE6FB7D
:103DF00003CEDCF1000CCEF1004E38BFAEF1010E67
:103E0000A6FB0C584FF000074FF00005E6FB0E87AD
:103E1000A1FB08C6A0FB07CE16EB0E0645F1000578
:103E2000E1FB076515F1E04E7EBFA4F580345FEA43
:103E300046066D4116F1800745F100054FEA172748
:103E40004FEA066647EA0567A6F1DE46B6F1805FEF
:103E50004FEA15251FD9384624F0010C05EBC47133
:103E6000BCF1FE6F01EB0C1102D8F0BCBDE8008183
:103E700024425CBF01F5801E9EEAC47F02D4F0BCE0
:103E8000BDE80081244238D4F0BCA1F1C041BDE8B6
:103E9000004100F032B94FEAD22242EA43524FEADF
:103EA000D323A7FB02864FEAD02040EA415007FB0C
:103EB00003661EEA0E0F4FEAD12105FB026658BFCA
:103EC000A6EB0056B6EB00564FEA520E4EEAC37E02
:103ED00018EB0E0E56EB530EBDD518EB02085E41E3
:103EE0007F1C55F10005B6E74FF480154FF0000731
:103EF0004FF000064FF00008ADE7F0BC4FF00000B7
:103F000001F1C04101F00041BDE8008111EA0C1F40
:103F10000CEA131500D00CE013EA0C1F00F025800A
:103F20004FF00000F0BC81EA030101F00041BDE860
:103F30000081F0BCBDE8004181EA030100F0DDB87A
:103F4000F0BCBDE8004170B500F089F8097EFC3E88
:103F500000F007B881EA03014FF0000001F00041D2
:103F6000704781EA030100F0C8B8F0BCBDE8004129
:103F70004FF0000021497047FFFDFBF9F7F5F4F21F
:103F8000F0EEEDEBE9E8E6E4E3E1E0DEDDDBDAD8F4
:103F9000D7D5D4D3D1D0CFCDCCCBCAC8C7C6C5C452
:103FA000C2C1C0BFBEBDBCBBBAB9B8B7B6B5B4B369
:103FB000B2B1B0AFAEADACABAAA9A8A8A7A6A5A454
:103FC000A3A3A2A1A09F9F9E9D9C9C9B9A99999818
:103FD0009797969595949393929191908F8F8E8EBB
:103FE0008D8C8C8B8B8A8989888887878685858448
:103FF00084838382828181800000FF070000F87F34
:104000004FEA41034FEA5353A3F58063D3F11E03F4
:10401000C8BFD3F1210C0CDD4FF0004242EAC122AF
:1040200042EA505232FA03FC8CEAE17CACEBE170DC
:104030007047102BC4BF0020704703F5787CBCF19B
:10404000FF3F04D06FF0004282EA2100704770B554
:1040500000F005F84992248000207047F2E70EF145
:10406000020E2EF0030E5EF8046B364205D4012AD0
:1040700043EB030515F5001F12D8012841EB010C95
:104080001CF5001F0CD80ED14FEAD17C15F5001F8E
:104090000CEB4C0C0CF1020C08BF4CEBD37C04E095
:1040A0004FF0080C01E04FEAD37C0CEB4C0526FAEC
:1040B00005F606F00706B6F1040C06D20EEB860CE8
:1040C000BDE870404CF0010C6047DFE80CF0090BD4
:1040D00002024FF000414FF00000A1F5002170BD39
:1040E00019461046012851EB010418BFD4F50014FD
:1040F00084BF002001F0004170BD0808A0F5001148
:104100004FEA31017047000043004FEAD30C4FEAF9
:104110003C0C43401FBF40070CF1605113F0FE4FB1
:1041200070471CF0006F03D100200CF00041704775
:104130000CF0004343EA507010B540EACC0000F0A8
:1041400000FA00BF000000924FEA0001FFF7D5BF60
:104150004FF000414FF00000A1F500217047000032
:1041600090EA010F48BF81F0004100F13C82421A01
:104170003CBF801A89184FEAD0524FF07F4C1CEA9E
:10418000410FA2EBD15318BF9CEA026F00F03B80B5
:104190004FF0004C4CEA00204CEA012121FA03FCCC
:1041A00010EB0C0C1ED202F1FF325FEA1C2040EB38
:1041B000C25038BF70471CF07F0F4FEA400C18BF49
:1041C000BCF17F4F38BF7047C3F12003994008BF4F
:1041D00020F00100BCF17F4F38BF7047A0F1C04014
:1041E00000F0F5B94FEA3C00000A40EBC25028BF8E
:1041F0001CF0FF0F4FEA400CE6D018BFBCF17F4F18
:1042000038BF7047EAE79CEA026F05D010EA5C0FFE
:1042100008BF00F00040704710B500F092F900BFF1
:1042200064FBBE3E4FF47F0C1CEAD0121EBF1CEA9A
:10423000D11392EA0C0F93EA0C0F00F0858090EAFC
:10424000010F48BF42F4807240F4000C41F40000BA
:104250002CF07F4120F07F4000B58142A2EB0302A9
:104260000FF2081CACEB504EC0F100009EF800E0CD
:104270004FEA4E0E00FB0EFC38BF49004FEA2C1CE3
:1042800002F5FA020CFB0EF34FEACE1E4FEA112C98
:104290004FEAC1210EEB635E42EB22420EFB0CFCA7
:1042A0004FEA1C5300FB03114FEA112C4FEA013176
:1042B0000EFB0CFC4FEADC4C00FB0C11C14228BF8A
:1042C00009184CEB03335DF804EB10EB410143EBB1
:1042D000C250B2F57C0F38BF704729D512F0F00FED
:1042E0001CBF00F1C04000F0004070470081828395
:1042F0008485868788898B8C8D8E8F9192939596F5
:1043000097999A9C9D9FA0A2A3A5A7A8AAACAEB07E
:10431000B2B3B5B7B9BCBEC0C2C5C7C9CCCED1D483
:10432000D7D9DCDFE2E6E9ECF0F3F7FAFE000000B3
:104330004FEA400C0CF1807CBCF17E4F28BF7047E7
:10434000B0F1C04000F043B990EA010F0CEAD1137C
:1043500048BF42F48072624538BF634507D213F408
:104360007F0F16D080EA010000F00040704710B5C2
:1043700000F0E7F8097EFC3E00F005B880EA010095
:1043800000F00040704780EA010000F0004000F0BB
:104390001EB912F47F0F04BF0248704780EA010083
:1043A00000F015B90000C07FC10DD1F19E0206DBFF
:1043B0004FEA002343F0004323FA02F07047004223
:1043C00007D54FEA4001B1F1FE4F02D24FF0000095
:1043D000704710B500F0B5F849922480002070476E
:1043E0006FEA20007047000010F0004148BF4042D3
:1043F000B0FA80F310FA03F2C3F19D030BD051EA37
:10440000C35101EB1220530638BF704700F1010081
:1044100008BF20F001007047B0FA80F310FA03F2F1
:10442000C3F19D030AD0D90501EB1220530638BF12
:10443000704700F1010008BF20F001007047000044
:104440004FF47F0C1CEAD0121EBF1CEAD11392EA73
:104450000C0F93EA0C0F00F0478090EA010F48BF61
:1044600042F480724FF0004C4CEA00204CEA0121EB
:1044700002EB0302A0FB0113A2F50002002918BF02
:1044800043F001035B0028BF4FEA330342EB2242B3
:104490005FEA132C4CEBC2502EBFBCEB436FB2F55E
:1044A0007C0F70474FEA036CBCF1004F08BF20F04F
:1044B0000100B2F57C0F38BF70470BD582F0FF02C8
:1044C00012F5803FC8BF704700F1C040D8BF00F070
:1044D0000040704700F5000C5FEA4C0C48BF704785
:1044E000B0F1C04000F073B890EA010F0CEAD113AC
:1044F00048BF42F48072624538BF634504D280EA07
:10450000010000F00040704710B500F01AF800BF3D
:104510008900013E00F007B800F009B85FEA410CDD
:104520005FEA1C6C08D080EA010000F050B85FEA36
:10453000400C5FEA1C6CF6D14FF00040A0F5800003
:1045400070470EF1020E2EF0030E5EF8044B24426B
:1045500004D44FEA4102B2F17F4F11D84FEA400331
:10456000B3F17F4F0CD80ED14FEAD07CB2F17F4F20
:104570000CEB4C0C0CF1020C08BF4CEBD17C04E0B2
:104580004FF0080C01E04FEAD17C0CEB4C0324FA0D
:1045900003F404F00704B4F1040C06D20EEB840C0F
:1045A000BDE810404CF0010C6047DFE80CF0070854
:1045B00002024FF00040A0F5800010BD0846420006
:1045C00018BFD2F1807288BF00F0004010BDFF21FB
:1045D00041EAD050C005704790EA010F48BF81F012
:1045E00000413FF5C4AD421A04D882F00042A0EB6E
:1045F000020011444FEAD0524FF07F4C1CEA410FA9
:10460000A2EBD15318BF9CEA026F4AD04FF0004C86
:104610004CEA00204CEA012121FA03FCB0EB0C0C1F
:104620000FD412F0FE0F36D05FEA4C001DD50012F9
:1046300040EBC25038BF70471CF03F0F18BF7047A7
:104640000BE0A2F101025FEA1C2040EBC25038BF30
:1046500070471CF07F0F18BF7047C3F120039940CB
:1046600014BF401E20F00100704780084FEA12235B
:1046700008BF7047B0FA80FCA2EB0C02CCF1280C0A
:1046800060FA0CF093EA122F04BF00EBC25070479F
:104690004FEAC3707047130A5FEADC1008BF704727
:1046A000F6E79CEA026F04D010EA5C0F08BF002016
:1046B000704710B5FFF745FF40DFF63E81F0004040
:1046C0007047FCF724B80102020304050607080935
:1046D0000A0B0C0D0E0F101000000000000000006F
:1046E0000102030406070809000000000102030498
:1046F00002400000000000A0000000000540000093
:10470000000000C8000000000C4000000000409CB9
:1047100000000000194000000020BCBE00000000A6
:1047200034400000BFC91B8E00000004B5400000EB
:10473000504BCFD06607E2CF010000006C41000073
:104740003E8251AADFEEA73401000000D9420000EA
:10475000DCB5A0E23A301F97FFFFFFFFB445000031
:10476000FD25A0C8E9A3C14FFFFFFFFFFF3F0000E9
:104770000000008000000000FF3F000000000080FB
:1047800000000000C0470008000000202C000000CE
:104790006C010008EC4700082C0000207C09000098
:1047A000880100081C00000043000000F8FFFFFF24
:1047B0000C0000000E0000000F0000002E000000A2
:1047C00000000000000000000000000000000000E9
:1047D00000000000000000000000000001000000D8
:0C47E00010000000000000000024F400A5
:0400000508000131BD
:00000001FF
